:020000040000FA
:100000000C9462000C948A000C948A000C948A0070
:100010000C948A000C948A000C948A000C948A0038
:100020000C948A000C948A000C948A000C948A0028
:100030000C948A000C948A000C948A000C948A0018
:100040000C94B20B0C948A000C94800B0C945A0BF9
:100050000C948A000C948A000C948A000C948A00F8
:100060000C94FC0B0C948A00000000002300260076
:10007000290000000000240027002A0000000000E2
:10008000250028002B0000000008000201000003EA
:10009000040700000000000000000404040404043D
:1000A0000404020202020202030303030303010227
:1000B00004081020408001020408102001020408F6
:1000C00010201B0D11241FBECFEFD8E0DEBFCDBF27
:1000D00011E0A0E0B1E0E4E2F4E202C005900D928C
:1000E000A43CB107D9F723E0A4ECB1E001C01D9214
:1000F000A137B207E1F710E0C2E6D0E004C02197D3
:10010000FE010E940A12C136D107C9F70E94A50D4F
:100110000C9410120C94000008950895CF92DF9271
:10012000EF92FF921F93CF93DF93EC018E818C307F
:1001300009F44DC038F48B30E1F060E070E080EC01
:100140009FE73DC085518230C0F71A81612F70E072
:10015000762F662766277F778B81682B90E080E07B
:100160000E9475102DEC3CEC4CEC5DE30E942C11D0
:1001700048C06A8170E090E080E00E9475106B01D9
:100180007C01CB81C7FF0AC0AC019B0160E070E03D
:1001900080E89FEB0E94620F6B017C01CF706C2F97
:1001A00070E090E080E00E9477102DEC3CEC4CEC8D
:1001B0005DE30E942C11A70196010E94630FDF915D
:1001C000CF911F91FF90EF90DF90CF9008951A810B
:1001D000612F70E090E080E00E9475106B017C015F
:1001E0006B816F7070E090E080E00E9477102DECE2
:1001F0003CEC4CEC5DE30E942C11A70196010E949F
:10020000630F17FFDCCF9058DACFAF92BF92CF9237
:10021000DF92EF92FF920F931F93CF93DF936C01C6
:100220007B018B01040F151FEB015E01AE18BF08A7
:10023000C017D10759F06991D601ED91FC91019059
:10024000F081E02DC6010995892B79F7C501DF9171
:10025000CF911F910F91FF90EF90DF90CF90BF90C3
:10026000AF900895FC01538D448D252F30E0842FED
:1002700090E0821B930B541710F0CF9608950197CE
:100280000895FC01918D828D981761F0A28DAE0FBB
:10029000BF2FB11D5D968C91928D9F5F9F73928F42
:1002A00090E008958FEF9FEF0895FC01918D828D6E
:1002B000981731F0828DE80FF11D858D90E008953B
:1002C0008FEF9FEF0895FC01918D228D892F90E093
:1002D000805C9F4F821B91098F73992708958AE94B
:1002E00092E00E94630121E0892B09F420E0822F33
:1002F000089580E090E0892B29F00E946F01811120
:100300000C9400000895FC01A48DA80FB92FB11D15
:10031000A35ABF4F2C91848D90E001968F7399273B
:10032000848FA689B7892C93A089B1898C91837019
:1003300080648C93938D848D981306C00288F38912
:10034000E02D80818F7D80830895EF92FF920F933F
:100350001F93CF93DF93EC0181E0888F9B8D8C8D71
:1003600098131AC0E889F989808185FF15C09FB765
:10037000F894EE89FF896083E889F9898081837028
:10038000806480839FBF81E090E0DF91CF911F91D7
:100390000F91FF90EF900895F62E0B8D10E00F5FF8
:1003A0001F4F0F731127E02E8C8D8E110CC00FB6CE
:1003B00007FCFACFE889F989808185FFF5CFCE0166
:1003C0000E948301F1CFEB8DEC0FFD2FF11DE35A5D
:1003D000FF4FF0829FB7F8940B8FEA89FB898081E9
:1003E0008062CFCFCF93DF93EC01888D8823B9F063
:1003F000AA89BB89E889F9898C9185FD03C0808130
:1004000086FD0DC00FB607FCF7CF8C9185FFF2CFAC
:10041000808185FFEDCFCE010E948301E9CFDF917E
:10042000CF91089590E0FC01EA57FF4F2491FC0121
:10043000E255FF4F3491FC01E656FF4FE491EE2365
:10044000C9F0222339F0233001F1A8F4213019F149
:10045000223029F1F0E0EE0FFF1FE458FF4FA59185
:10046000B4918FB7F894EC91611126C030953E237A
:100470003C938FBF08952730A9F02830C9F024306D
:1004800049F7809180008F7D03C0809180008F7735
:1004900080938000DFCF84B58F7784BDDBCF84B5B8
:1004A0008F7DFBCF8091B0008F778093B000D2CF4B
:1004B0008091B0008F7DF9CF3E2BDACFCF93DF93C1
:1004C00090E0FC01E255FF4F249186569F4FFC01BE
:1004D00084918823D1F090E0880F991FFC01EE5899
:1004E000FF4FA591B491FC01E458FF4FC591D49101
:1004F000623071F49FB7F8943C91822F80958323EA
:100500008C93E8812E2B28839FBFDF91CF91089594
:100510008FB7F894EC912E2B2C938FBFF6CF3FB76B
:10052000F89480917F0290918002A0918102B09115
:10053000820226B5A89B05C02F3F19F00196A11D88
:10054000B11D3FBFBA2FA92F982F8827BC01CD011D
:10055000620F711D811D911D42E0660F771F881F7C
:10056000991F4A95D1F708958F929F92AF92BF92AB
:10057000CF92DF92EF92FF924B015C010E948F02BB
:100580006B017C010E948F026C197D098E099F0905
:10059000683E734081059105A8F321E0821A910815
:1005A000A108B10888EEC80E83E0D81EE11CF11C3A
:1005B00081149104A104B10429F7FF90EF90DF901A
:1005C000CF90BF90AF909F908F900895209134026C
:1005D000260F3327331F21323105ECF420915802C6
:1005E000FC0190E080E0243069F082E00895A09161
:1005F00034022191AC014C5E5D4FA40FB52FB11DAB
:100600002C930196861798F380913402680F6093BB
:10061000340280E0089581E008951092580281E04C
:1006200080935A021092590261E082E10E94120204
:1006300061E083E10E941202E9EBF0E080818E7FAD
:10064000808380818D7F808388E48093B80085E4F7
:100650008093BC000895CF93DF9391E090931302B1
:100660008823B9F0C091B800D091BA008091BC0045
:100670008A7B8093BC0060E082E10E94120260E00D
:1006800083E10E9412020E940D03D093BA00C0932E
:10069000B800DF91CF9108950895E0913E038091D5
:1006A0003D03E81730F4F0E0E251FE4F808190E026
:1006B00008958FEF9FEF089590913E0380913D0341
:1006C0002FEF3FEF981748F4E92FF0E0E251FE4F8B
:1006D000208130E09F5F90933E03C901089580918F
:1006E0003D0390913E03891B990B0895CF92DF92B1
:1006F000EF92FF920F931F93CF93DF937C01CB0177
:100700008A012091ED01222389F0EB016B01C40ED7
:10071000D51ECC15DD0569F06991D701ED91FC91ED
:100720000190F081E02DC7010995F3CF642F0E945D
:10073000E602C801DF91CF911F910F91FF90EF90DA
:10074000DF90CF900895CF93DF931F92CDB7DEB7A0
:1007500069832091ED012223F9F020913B0320329F
:1007600058F021E030E0FC013383228390E080E008
:100770000F90DF91CF91089580913C03E82FF0E036
:10078000E353FE4F998190838F5F80933C03809366
:100790003B0381E090E0ECCF61E0CE0101960E9446
:1007A000E602F7CF90E080E008950F931F938FB794
:1007B000F89400919602109197022091980230913E
:1007C00099028FBF4091C9015091CA016091CB013C
:1007D0007091CC01041B150B260B370B80918702FF
:1007E00090918802A0918902B0918A02083E13403C
:1007F00021053105C0F00196A11DB11D809387022E
:1008000090938802A0938902B0938A0248515C4F6A
:100810006F4F7F4F4093C9015093CA016093CB0142
:100820007093CC01C4CF40918302509184026091B7
:1008300085027091860284179507A607B707C8F14D
:10084000E0918B02F0918C02309799F10995611536
:10085000710581059105C1F160938702709388024B
:100860008093890290938A02645D7E4F8F4F9F4FE1
:100870006093830270938402809385029093860232
:1008800082E090E090938E0280938D022FB7F894CF
:100890008091960290919702A0919802B09199024E
:1008A0002FBF8093C9019093CA01A093CB01B0934D
:1008B000CC016091870270918802809189029091A9
:1008C0008A021F910F91089580918702909188026A
:1008D000A0918902B0918A02845D9E4FAF4FBF4FB5
:1008E0008093830290938402A0938502B093860242
:1008F00081E090E020918D0230918E02232B11F443
:1009000090E080E090938E0280938D02D2CF4F9240
:100910005F926F927F928F929F92AF92BF92CF928F
:10092000DF92EF92FF920F931F93CF93DF934B01D0
:100930005C018091C5019091C601A091C701B09161
:10094000C80188159905AA05BB0509F4C6C08CE342
:10095000C82ED12CE12CF12CC501A70196010E94D3
:10096000B21160938F02CA01B901A70196010E94DA
:10097000B21160939002C501B40120E13EE040E075
:1009800050E00E94B211CA01B90128E130E040E014
:1009900050E00E94B21160939102C501B40120E8B9
:1009A00031E541E050E00E94B21169017A01CA01CB
:1009B000B9016C5F7F4F8F4F9F4F27E030E040E0E1
:1009C00050E00E94B2116F5F60939202412C512C53
:1009D000320140E004E610E0C0E9D1E0242F30E02D
:1009E0002E54384FF901E370FF273097F9F4C9010D
:1009F000B8010E949E11892B31F4C901BE010E94E9
:100A00009E11892B99F48EE691E0A0E0B0E0480EAB
:100A1000591E6A1E7B1ED301C201AA27BB27C81616
:100A2000D906EA06FB0638F04F5FD8CF8DE691E095
:100A3000A0E0B0E0ECCF40939502C90164E670E01D
:100A40000E949E11EC01C90160E971E00E949E11B3
:100A5000309721F42097D9F40097C9F04DE651E082
:100A600060E070E0441A550A660A770AC418D5088F
:100A7000E608F708A0E0B1E020E0213069F4309703
:100A8000E9F5209711F40097C9F54DE106C04EE64F
:100A900051E060E070E0E6CF4C9150E070E060E043
:100AA00031E0320FC416D506E606F70640F0C41A48
:100AB000D50AE60AF70A1196232F3C30F1F62F5F8C
:100AC00020939402C394C09293028092C5019092A5
:100AD000C601A092C701B092C801DF91CF911F91CA
:100AE0000F91FF90EF90DF90CF90BF90AF909F90CD
:100AF0008F907F906F905F904F9008954CE1CDCF95
:100B0000CF92DF92EF92FF92CF93DF93DC011796A3
:100B1000CC911797D0E06111DC2F18962C91189783
:100B200030E0220F331F28593F4F50E040E0F901D9
:100B300085919491FC01F080BA0190E080E0EF2D66
:100B4000EC23ED1310C04F5F5F4F1D96CD90DD90ED
:100B5000ED90FC9050976C157D058E059F0538F340
:100B60006FEF7FEFCB01DF91CF91FF90EF90DF90A0
:100B7000CF9008958F929F92AF92BF92CF92DF92C3
:100B8000EF92FF920F931F93CF93DF93CDB7DEB712
:100B9000C054D1400FB6F894DEBF0FBECDBF2FB703
:100BA000F89440919602509197026091980270914A
:100BB00099022FBFFC0101851285238534856A01C6
:100BC0007B01C01AD10AE20AF30A97018601003DAF
:100BD000174021053105B0F4FC018189C05CDE4F6E
:100BE0000FB6F894DEBF0FBECDBFDF91CF911F913E
:100BF0000F91FF90EF90DF90CF90BF90AF909F90BC
:100C00008F9008958C01FC01418752876387748718
:100C10001482138212821182108262E085810E9406
:100C20005E0261E070E080E090E00E94B40261E06A
:100C3000F80185810E945E0260E0F80185810E94D2
:100C40001202F80186818551823028F58BE291E10C
:100C50000197F1F762E0F80185810E945E02F801D8
:100C6000828990E08230910538F0880F991F880FB3
:100C7000991F05970197F1F7F89460E0C8010E9469
:100C800080056F3F7F4F8F4F9F4F61F4F801118AAE
:100C9000789480E0A3CF64E170E080E090E00E946F
:100CA000B402D8CF61E0C8010E9480056F3F7F4F3A
:100CB0008F4F9F4F59F3CE0101967C015E019FEB50
:100CC000A91A9EEFB90A670160E0C8010E94800579
:100CD000F601608371838283938361E0C8010E947F
:100CE0008005F6016483758386839783F8E0CF0ED1
:100CF000D11CCA14DB0441F7789430E020E0F701FE
:100D000080809180A280B380448155816681778103
:100D1000FFEF8F169F06AF06BF0631F04F3F8FEFF4
:100D200058076807780719F4F801118AB2CFF9015A
:100D300083E0F595E7958A95E1F7E00FF11F808153
:100D4000880F84169506A606B706F0F080832F5FFD
:100D50003F4FF8E0EF0EF11C2832310581F6F80123
:100D6000448120818181280F3327331F8281280FFE
:100D7000311D8381820F932F911D992748171906E2
:100D800099F681E0818B2ACF8160E0CFCF92DF920C
:100D9000EF92FF92CF93DF93EC010E94BA05882374
:100DA00041F08E818B3028F08D3040F085518230BB
:100DB00030F160E070E080EC9FE71AC0698170E07C
:100DC00090E080E00E9477102DEC3CEC4CEC5DE371
:100DD0000E942C116B017C01688170E090E080E042
:100DE0000E9477109B01AC01C701B6010E94630FFE
:100DF000DF91CF91FF90EF90DF90CF9008956881C1
:100E0000798176276727762790E080E00E94751029
:100E10002DEC3CEC4CEC5DE30E942C11E9CFFC0185
:100E200001900020E9F73197AF01481B590BBC0135
:100E30008AE992E00C9405018F929F92AF92BF9243
:100E40000F931F93CF93DF93CDB7DEB7A1970FB664
:100E5000F894DEBF0FBECDBF19A2423008F44AE0BD
:100E60008E010F5D1F4F842E912CB12CA12CA5015A
:100E700094010E94B211E62FB901CA01EA30F4F4DC
:100E8000E05DD801EE938D01232B242B252B79F7E0
:100E900090E080E0109719F0CD010E940F07A19615
:100EA0000FB6F894DEBF0FBECDBFDF91CF911F917B
:100EB0000F91BF90AF909F908F900895E95CE1CF24
:100EC0000C940F074F925F926F927F928F929F9236
:100ED000AF92BF92CF92DF92EF92FF920F931F9348
:100EE000CF936B017C01742EAC019B010E94991180
:100EF000882399F080E391E0CF911F910F91FF90AB
:100F0000EF90DF90CF90BF90AF909F908F907F90A9
:100F10006F905F904F900C940F0746015701E89433
:100F2000B7F82FEF3FEF4FE75FE7C501B4010E942D
:100F3000991181110DC02FEF3FEF4FE75FE7C5011A
:100F4000B4010E94CF0F18161CF484E391E0D4CFB3
:100F50002FEF3FEF4FE75FE4C701B6010E94271173
:100F600018161CF488E391E0C7CF2FEF3FEF4FE74F
:100F70005FECC701B6010E94CF0F87FDF3CF20E0E1
:100F800030E0A901C701B6010E94CF0F10E000E0D8
:100F900087FF0AC06DE28AE992E00E94A5018C01F8
:100FA000F7FAF094F7F8F094C0E060E070E080E0C9
:100FB0009FE37C1641F020E030E040E251E40E94E3
:100FC000D40FCF5FF6CFA70196010E94630F2B01CC
:100FD0003C010E9446104B015C014AE00E941C0744
:100FE0007C01E00EF11ECC23C1F1C501B4010E94C9
:100FF00075109B01AC01C301B2010E94620F4B014D
:101000005C016EE28AE992E00E94A501E80EF91EF9
:10101000C15018F120E030E040E251E4C501B401D4
:101020000E942C112B013C010E9446104B01B12C57
:10103000A12C4AE0C501B4010E941C07E80EF91E6C
:10104000C501B4010E9475109B01AC01C301B2013E
:101050000E94620F4B015C01DBCFC701CF911F9152
:101060000F91FF90EF90DF90CF90BF90AF909F9047
:101070008F907F906F905F904F900895CF92DF9206
:10108000EF92FF92CF93DF936C01990FEE08FF0868
:10109000F7FE19C06DE28AE992E00E94A501EC0119
:1010A00066277727CB016C197D098E099F094AE0D5
:1010B0000E941C078C0F9D1FDF91CF91FF90EF9036
:1010C000DF90CF9008954AE0C701B601DF91CF913C
:1010D000FF90EF90DF90CF900C941C072F923F92DF
:1010E0004F925F926F927F928F929F92AF92BF9238
:1010F000CF92DF92EF92FF920F931F93CF93DF93E4
:1011000081E08093ED0188E68093C40110923C0356
:1011100010923B0360E08FE393E00E94A303C09131
:101120003B03C13208F0E0C00E948F026B017C01DA
:101130008091580281116BC082E08093580281E057
:1011400080935A028FEF8093570210927C02C093D3
:101150007B02EDECF1E0ABE5B2E080E0C8139CC0AF
:1011600010927D0280917D02806D80937D0280913E
:101170005902813009F094C0109259020E948F02E6
:101180006B017C0180917D028093BB0080910F02F6
:1011900090911002A0911102B0911202892B8A2B1A
:1011A0008B2BA1F00E948F0200910F021091100270
:1011B00020911102309112026C197D098E099F094C
:1011C000061717072807390708F442C08091BC00AA
:1011D00083FDD8CF85EC8093BC000E948F026B0109
:1011E0007C0180915802823009F45CC080915702E2
:1011F000C0E08F3F91F180915702C2E0803269F1E7
:1012000080915702C3E0803341F1C4E026C0809151
:101210000F0290911002A0911102B0911202892B3D
:101220008A2B8B2B09F484CF0E948F0200910F022E
:101230001091100220911102309112026C197D0957
:101240008E099F09061717072807390708F070CF7E
:1012500080910E020E942B03C5E010923C03109275
:101260003B031092ED01CC2309F440C060E070E034
:10127000CB01DF91CF911F910F91FF90EF90DF9005
:10128000CF90BF90AF909F908F907F906F905F9026
:101290004F903F902F90089591919D938F5F5ECFD7
:1012A00085EE99CF80910F0290911002A0911102CA
:1012B000B0911202892B8A2B8B2B09F492CF0E94BA
:1012C0008F0200910F0210911002209111023091B3
:1012D00012026C197D098E099F0906171707280746
:1012E000390708F07ECFB4CFC1E0B7CF0E948F029C
:1012F0006B017C0180915802811164C081E0809370
:10130000580280935A029FEF9093570210927C02EA
:1013100096E090937B0280937D0280917D02806DA8
:1013200080937D0280915902813009F013C110929F
:1013300059020E948F026B017C0180917D02809393
:10134000BB0080910F0290911002A0911102B09108
:101350001202892B8A2B8B2BA1F00E948F02009105
:101360000F021091100220911102309112026C199B
:101370007D098E099F09061717072807390708F402
:1013800042C08091BC0083FDD8CF85EC8093BC0027
:101390000E948F026B017C0180915802813009F418
:1013A000DBC080917C02873008F0F8C080917C021D
:1013B000EBE5F2E0AEEEB1E0C81749F191919D93F3
:1013C000CF5FFACF80910F0290911002A09111028D
:1013D000B0911202892B8A2B8B2B09F48BCF0E94A0
:1013E0008F0200910F021091100220911102309192
:1013F00012026C197D098E099F0906171707280725
:10140000390708F077CF80910E020E942B031092CB
:101410003E03C0933D03C73008F428CF8FE393E029
:101420000E945C03D82F82958770CAE09D2F9F7021
:10143000492E8C9F400C11248FE393E00E945C03A3
:10144000982F92959F708F70582E9C9F500C11244E
:101450008FE393E00E945C03982F929593708F70B6
:10146000382E9C9F300C11248FE393E00E945C0384
:101470008FE393E00E945C03982F92959F708F708A
:10148000282E9C9F200C11248FE393E00E945C0384
:10149000982F92959F708F70682E9C9F600C1124DE
:1014A0008FE393E00E945C03982F92959F70282F02
:1014B0002F70225E9C9F200D1124D7FDD7CEA22F26
:1014C000B0E020E833E341EE51E00E94E3114B012C
:1014D0005C01E2EBF7E09D01C4E6D0E000E911E039
:1014E000CF01825B9740821793070CF459C02E54AA
:1014F000384FC90164E670E00E949E117C01C90169
:1015000060E971E00E949E116C0100E011E0C1E011
:10151000D0E0712CF901E370FF27C615D7050CF058
:1015200068C0C230D10509F055C0309709F052C0EB
:10153000E114F10421F4C114D10409F04BC090E886
:10154000890E9BE3991E96E2A91EB11C21960F5F9E
:101550001F4FE3CF85EE1ACF80910F0290911002BA
:10156000A0911102B0911202892B8A2B8B2B09F4C6
:1015700013CF0E948F0200910F0210911002209150
:101580001102309112026C197D098E099F0906170C
:1015900017072807390708F0FFCE35CF87E008CFB7
:1015A000CF0183709927892B99F4CF01BE010E9446
:1015B0009E11892B31F4CF01B8010E949E11892B15
:1015C00039F480E8880E81E5981E81E0A81EB11CE0
:1015D000319686CFD8018C91A82FB0E020E831E574
:1015E00041E050E00E94E311860E971EA81EB91E2E
:1015F000ADCF252D30E0ACE3B0E00E94D4116B01FB
:101600007C01C40CD11CE11CF11C232D30E0A0E1B5
:10161000BEE00E94D411C60ED71EE81EF91E822D10
:101620008150990BDC0120E831E541E050E00E9457
:10163000EE116C0D7D1D8E1D9F1D680D791D8A1D7F
:101640009B1D17CE85ED8093BC0080910F02909179
:101650001002A0911102B09112020796A11DB11DB6
:1016600023E0B695A795979587952A95D1F7209170
:10167000BC0024FD03C010925802089540910F024F
:10168000509110026091110270911202452B462B6D
:10169000472B69F30097A105B10541F025E32A9591
:1016A000F1F700000197A109B109E1CF80910E0285
:1016B0000C942B031F920F920FB60F9211242F93AD
:1016C0003F934F935F936F937F938F939F93AF93CA
:1016D000BF93EF93FF938AE992E00E948301FF9109
:1016E000EF91BF91AF919F918F917F916F915F919A
:1016F0004F913F912F910F900FBE0F901F90189513
:101700001F920F920FB60F9211242F938F939F93D6
:10171000EF93FF93E091AA02F091AB028081E091F8
:10172000B002F091B10282FD1BC090818091B302A2
:101730008F5F8F732091B402821741F0E091B30262
:10174000F0E0E656FD4F958F8093B302FF91EF9145
:101750009F918F912F910F900FBE0F901F90189512
:101760008081F4CF1F920F920FB60F9211242F9306
:101770003F938F939F93AF93BF93809196029091E5
:101780009702A0919802B091990230917E0223E0D5
:10179000230F2D3758F50196A11DB11D20937E0210
:1017A0008093960290939702A0939802B093990227
:1017B00080917F0290918002A0918102B09182027B
:1017C0000196A11DB11D80937F0290938002A0938A
:1017D0008102B0938202BF91AF919F918F913F910F
:1017E0002F910F900FBE0F901F90189526E8230F92
:1017F0000296A11DB11DD2CF1F920F920FB60F926C
:1018000011242F933F934F935F936F937F938F9305
:101810009F93AF93BF93EF93FF938091B900887F1D
:10182000803609F44AC0F0F5883209F4A7C018F5EB
:10183000803109F49BC0B8F4882309F4F9C08830DA
:1018400009F494C0FF91EF91BF91AF919F918F9157
:101850007F916F915F914F913F912F910F900FBEAC
:101860000F901F901895883109F488C0803251F785
:101870008093570214C0803409F49DC040F4803333
:10188000B9F38833F9F68093570285ECB0C0803500
:1018900009F485C0883509F496C0883499F60E9409
:1018A000220BD0CF883909F48CC038F5883729F05D
:1018B00050F4883611F0803729F683E0809358027F
:1018C0001092560257C0883809F47BC0803919F04D
:1018D000803809F0B7CF80915602803208F071C08D
:1018E000E091560281E08E0F809356028091BB00FA
:1018F000F0E0EA5CFD4F80833DC0803B39F0E0F4CE
:10190000803A09F479C0883A09F09CCF84E080934A
:1019100058021092350210923402E0913903F0918E
:101920003A0309958091340281110FC081E08093C0
:1019300034021092140209C0803C09F4A6CF883CFE
:1019400009F4A3CF883B09F07DCFE091350281E017
:101950008E0F80933502F0E0EC5EFD4F8081809326
:10196000BB00909135028091340229C080917D02A4
:101970008093BB0085EC8093BC0064CF90917C0287
:1019800080917B02981758F5E0917C0281E08E0FE0
:1019900080937C02F0E0E55AFD4F8081E9CFE09131
:1019A0007C0281E08E0F80937C028091BB00F0E08E
:1019B000E55AFD4F808390917C0280917B029817BD
:1019C000C8F285E8D8CFE0917C0281E08E0F809349
:1019D0007C028091BB00F0E0E55AFD4F808380914E
:1019E0005A0281115CCF81E08093590284EA80938E
:1019F000BC001092580226CF85EC8093BC00109258
:101A0000580280915602803230F4E0915602F0E0A4
:101A1000EA5CFD4F10826091560270E0E09137035E
:101A2000F091380386E392E00995109256020ACFAE
:101A30001092570234CFEAE9F2E01382128288EE64
:101A400093E0A0E0B0E084839583A683B78320E190
:101A500031E03183208325EC30E03587248724EC86
:101A600030E03787268720EC30E0318B208B21EC6B
:101A700030E0338B228B22EC30E0358B248B26EC4C
:101A800030E0378B268B118E128E138E148EEFE37F
:101A9000F3E01382128284839583A683B78382E264
:101AA00091E09183808310923E0310923D03109247
:101AB0003C0310923B030E940D038CE890E090934E
:101AC0003A03809339038DE890E090933803809334
:101AD0003703AEE5B3E082E015968C9315978BE063
:101AE00016968C931697E0EBF0E0E4911796EC9342
:101AF0001797ECE9F0E0E4911896EC93189740E81A
:101B00005EE360E070E01D964D935D936D937C9372
:101B10005097ABE4B3E093E015969C931597169617
:101B20008C931697E1EBF0E0E4911796EC931797FE
:101B3000EDE9F0E0E4911896EC9318971D964D931B
:101B40005D936D937C9350970895CF93DF9300D06E
:101B500000D0CDB7DEB7789484B5826084BD84B5FB
:101B6000816084BD85B5826085BD85B5816085BD98
:101B700080916E00816080936E0010928100809150
:101B800081008260809381008091810081608093D8
:101B90008100809180008160809380008091B100FD
:101BA00084608093B1008091B00081608093B00028
:101BB00080917A00846080937A0080917A008260BC
:101BC00080937A0080917A00816080937A0080917E
:101BD0007A00806880937A001092C10062E0809160
:101BE00063030E945E022FB7F89480919602909151
:101BF0009702A0919802B09199022FBF805D974003
:101C0000A109B1098093670390936803A0936903C6
:101C1000B0936A0387E38093700362E0809150037E
:101C20000E945E022FB7F8948091960290919702DD
:101C3000A0919802B09199022FBF805D9740A109B1
:101C4000B1098093540390935503A0935603B09326
:101C5000570397E390935D03E091AA02F091AB02E2
:101C600082E08083E091A602F091A7021082E091C9
:101C7000A802F091A9028FEC80831092B202E09149
:101C8000AE02F091AF0286E08083E091AC02F09169
:101C9000AD02808180618083E091AC02F091AD0261
:101CA000808188608083E091AC02F091AD028081F8
:101CB00080688083E091AC02F091AD0280818F7DDD
:101CC00080838EE698E090938C0280938B028091C3
:101CD000870290918802A0918902B0918A02809334
:101CE000830290938402A0938502B09386020E949F
:101CF000D5030E94D50380918D0290918E020297A8
:101D000009F4D6C08CE391E00E940F0788E591E0CA
:101D10000E940F078EE593E00E94C6062B013C014E
:101D20008EE593E00E94BA05812C912C90ECA92EAF
:101D30009FE7B92E882331F08EE593E00E948E0054
:101D40004B015C018BE493E00E94C60669837A83B1
:101D50008B839C838BE493E00E94BA05882309F46B
:101D6000AAC08BE493E00E948E006B017C0187E7A0
:101D700091E00E9460070E94D5030E948704809131
:101D8000930290E00E943E0880E891E00E94600784
:101D90000E94D5030E9487048091940290E00E94E3
:101DA0003E0880E891E00E9460070E94D5030E94EF
:101DB00087048091950290E08E54984F0E943E08CF
:101DC00082E891E00E9460070E94D5030E94870488
:101DD0008091910290E00E943E0884EB91E00E9485
:101DE00060070E94D5030E9487048091900290E0D2
:101DF0000E943E0884EB91E00E9460070E94D50398
:101E00000E94870480918F0290E00E943E088BE838
:101E100091E00E94600788E991E00E94600742E03B
:101E2000C301B2010E94620785EA91E00E94600747
:101E300087EA91E00E94600742E0C501B4010E9478
:101E4000620786E591E00E94600786EB91E00E94C0
:101E5000600788E991E00E94600742E069817A8129
:101E60008B819C810E94620785EA91E00E94600755
:101E700087EA91E00E94600742E0C701B6010E9434
:101E8000620786E591E00E94600768E873E180E000
:101E900090E00E94B40280E090E0892B09F43ACFF0
:101EA0000E946F01882309F435CF0E94000032CFD1
:101EB0008BE591E029CFC12CD12C80ECE82E8FE767
:101EC000F82E55CF5058BB27AA270E947A0F0C94A2
:101ED000ED100E94DF1038F00E94E61020F039F477
:101EE0009F3F19F426F40C94DC100EF4E095E7FB08
:101EF0000C94D610E92F0E94FE1058F3BA1762070F
:101F000073078407950720F079F4A6F50C94201147
:101F10000EF4E0950B2EBA2FA02D0B01B901900104
:101F20000C01CA01A0011124FF27591B99F0593F48
:101F300050F4503E68F11A16F040A22F232F342F90
:101F40004427585FF3CF469537952795A795F040DE
:101F50005395C9F77EF41F16BA0B620B730B840BF3
:101F6000BAF09150A1F0FF0FBB1F661F771F881FAB
:101F7000C2F70EC0BA0F621F731F841F48F4879503
:101F800077956795B795F7959E3F08F0B0CF9395F5
:101F9000880F08F09927EE0F9795879508950E946E
:101FA000B21008F481E008950E94E80F0C94ED103F
:101FB0000E94E61058F00E94DF1040F029F45F3FC5
:101FC00029F00C94D61051110C9421110C94DC10B2
:101FD0000E94FE1068F39923B1F3552391F3951BEA
:101FE000550BBB27AA2762177307840738F09F5F3A
:101FF0005F4F220F331F441FAA1FA9F335D00E2EA7
:102000003AF0E0E832D091505040E695001CCAF713
:102010002BD0FE2F29D0660F771F881FBB1F2617D6
:1020200037074807AB07B0E809F0BB0B802DBF01AD
:10203000FF2793585F4F3AF09E3F510578F00C947C
:10204000D6100C9421115F3FE4F3983ED4F38695AB
:1020500077956795B795F7959F5FC9F7880F911D9D
:102060009695879597F90895E1E0660F771F881F89
:10207000BB1F621773078407BA0720F0621B730B3C
:10208000840BBA0BEE1F88F7E09508950E940611A5
:1020900088F09F5798F0B92F9927B751B0F0E1F029
:1020A000660F771F881F991F1AF0BA95C9F714C0D9
:1020B000B13091F00E942011B1E008950C942011EC
:1020C000672F782F8827B85F39F0B93FCCF3869512
:1020D00077956795B395D9F73EF49095809570956F
:1020E00061957F4F8F4F9F4F0895E89409C097FBEC
:1020F0003EF490958095709561957F4F8F4F9F4FDF
:102100009923A9F0F92F96E9BB279395F695879522
:1021100077956795B795F111F8CFFAF4BB0F11F4E5
:1021200060FF1BC06F5F7F4F8F4F9F4F16C088238C
:1021300011F096E911C0772321F09EE8872F762FC2
:1021400005C0662371F096E8862F70E060E02AF003
:102150009A95660F771F881FDAF7880F96958795EF
:1021600097F90895990F0008550FAA0BE0E8FEEFC4
:1021700016161706E807F907C0F012161306E4074B
:10218000F50798F0621B730B840B950B39F40A2644
:1021900061F0232B242B252B21F408950A2609F422
:1021A000A140A6958FEF811D811D089597F99F6726
:1021B00080E870E060E008959FEF80EC08950024CF
:1021C0000A941616170618060906089500240A949C
:1021D00012161306140605060895092E0394000C22
:1021E00011F4882352F0BB0F40F4BF2B11F460FFB1
:1021F00004C06F5F7F4F8F4F9F4F089557FD9058DA
:10220000440F551F59F05F3F71F04795880F97FBBA
:10221000991F61F09F3F79F0879508951216130674
:102220001406551FF2CF4695F1DF08C016161706A3
:102230001806991FF1CF86957105610508940895D8
:10224000E894BB2766277727CB0197F908950E946A
:10225000B21008F48FEF08950E943F110C94ED1016
:102260000E94DF1038F00E94E61020F0952311F054
:102270000C94D6100C94DC1011240C9421110E94A3
:10228000FE1070F3959FC1F3950F50E0551F629FAC
:10229000F001729FBB27F00DB11D639FAA27F00DBF
:1022A000B11DAA1F649F6627B00DA11D661F829FE6
:1022B0002227B00DA11D621F739FB00DA11D621FCB
:1022C000839FA00D611D221F749F3327A00D611DE8
:1022D000231F849F600D211D822F762F6A2F1124CA
:1022E0009F5750409AF0F1F088234AF0EE0FFF1FFD
:1022F000BB1F661F771F881F91505040A9F79E3F54
:10230000510580F00C94D6100C9421115F3FE4F33A
:10231000983ED4F3869577956795B795F795E795A9
:102320009F5FC1F7FE2B880F911D9695879597F9B2
:1023300008950E94B210880B990B089597FB072E01
:1023400016F4009407D077FD09D00E94F61107FC1F
:1023500005D03EF4909581959F4F089570956195B5
:102360007F4F0895A1E21A2EAA1BBB1BFD010DC0D1
:10237000AA1FBB1FEE1FFF1FA217B307E407F50735
:1023800020F0A21BB30BE40BF50B661F771F881F11
:10239000991F1A9469F760957095809590959B01A7
:1023A000AC01BD01CF010895A29FB001B39FC00150
:1023B000A39F700D811D1124911DB29F700D811D71
:1023C0001124911D08950E94D411A59F900DB49FD2
:1023D000900DA49F800D911D11240895B7FF0C94BA
:1023E000E3110E94E311821B930B0895AA1BBB1BF0
:1023F00051E107C0AA1FBB1FA617B70710F0A61B05
:10240000B70B881F991F5A95A9F780959095BC0125
:10241000CD010895EE0FFF1F0590F491E02D099472
:10242000F894FFCF1F1C1F1E1F1E1F1F1E1F1E1FE5
:1024300000000000A50105013201F2016301410124
:10244000550100000000A3037603D2034C036F0381
:102450005C034D036E616E00696E66006F76660008
:10246000556E61626C6520746F2073796E6320779E
:102470006974682074686520525443000D0A005244
:1024800054432068617320736574207468652073F9
:10249000797374656D2074696D65000D0A4461740B
:1024A000653A20002E000D0A54696D653A20000D32
:1024B0000A53656E736F7220313A200020204875F0
:1024C0006D69646974793A20002500202054656D97
:1024D00070657261747572653A000D0A53656E73AA
:0824E0006F7220323A20000067
:107E0000112484B714BE81FFF0D085E080938100F7
:107E100082E08093C00088E18093C10086E0809377
:107E2000C20080E18093C4008EE0C9D0259A86E02C
:107E300020E33CEF91E0309385002093840096BBD3
:107E4000B09BFECF1D9AA8958150A9F7CC24DD24C4
:107E500088248394B5E0AB2EA1E19A2EF3E0BF2EE7
:107E6000A2D0813461F49FD0082FAFD0023811F036
:107E7000013811F484E001C083E08DD089C08234E0
:107E800011F484E103C0853419F485E0A6D080C0E4
:107E9000853579F488D0E82EFF2485D0082F10E0AE
:107EA000102F00270E291F29000F111F8ED06801E7
:107EB0006FC0863521F484E090D080E0DECF843638
:107EC00009F040C070D06FD0082F6DD080E0C81688
:107ED00080E7D80618F4F601B7BEE895C0E0D1E017
:107EE00062D089930C17E1F7F0E0CF16F0E7DF06D8
:107EF00018F0F601B7BEE89568D007B600FCFDCFD4
:107F0000A601A0E0B1E02C9130E011968C91119780
:107F100090E0982F8827822B932B1296FA010C0160
:107F200087BEE89511244E5F5F4FF1E0A038BF0790
:107F300051F7F601A7BEE89507B600FCFDCF97BE46
:107F4000E89526C08437B1F42ED02DD0F82E2BD052
:107F50003CD0F601EF2C8F010F5F1F4F84911BD097
:107F6000EA94F801C1F70894C11CD11CFA94CF0C13
:107F7000D11C0EC0853739F428D08EE10CD085E9AC
:107F80000AD08FE07ACF813511F488E018D01DD067
:107F900080E101D065CF982F8091C00085FFFCCF94
:107FA0009093C60008958091C00087FFFCCF809118
:107FB000C00084FD01C0A8958091C6000895E0E648
:107FC000F0E098E1908380830895EDDF803219F02E
:107FD00088E0F5DFFFCF84E1DECF1F93182FE3DFCA
:107FE0001150E9F7F2DF1F91089580E0E8DFEE27F6
:047FF000FF270994CA
:027FFE00040479
:00000001FF
